:10087500E4FAEF6405703343F620C2F8C2F9D2FA00
:1008850043E180C2FCD2FBADF8EDC413135403FD64
:10089500AFE2AB07EB7E007802C333CE33CED8F997
:1008A5007C002DFBEC3EAF03FE22EF640670344363
:1008B500F640D2F8C2F9D2FA43E180C2FCD2FBADD0
:1008C500F8EDC413135403FDAFE27A00AB07EB7EDA
:1008D500007802C333CE33CED8F97C002DFBEC3E35
:0308E500FEAF0360
:0108E80022ED
:030506008102006F
:0D1566007F061208757854EEF208EFF222AD
:100607007800EEF208EFF2C3941BEE9403400BD28E
:10061700947F121210007F3CC1A57800E2FE08E229
:10062700FFC3941BEE94035014C3EF940CEE940392
:10063700400BD2947F081210007F6480617800E23B
:10064700FE08E2C3940CEE94035011C3EE940340EA
:100657000BD2947F071210007F6480427800E2FE7D
:1006670008E2FFC3EE94035014C3EF94F5EE94022F
:10067700400BD2947F061210007F6480217800E23D
:10068700FE08E2FFC394F5EE94025018C3EF94E11D
:10069700EE9402400FD2947F051210007F6412136C
:1006A70055C29422C37801E294E118E29402500300
:0406B70012141F22D8
:0905090087190000000000000049
:09157E00C290D2A7C293D2A622AA
:100D2B00780574AAF2E418F2E47803F27805E2C2CB
:100D3B00907D147C007F2E120F51D2907805E22506
:100D4B00E0F27D187C007F28120F517803E204F249
:100D5B00E2C3940840D6780574AAF218E204F2E2D2
:070D6B00C3940240C3D290C3
:010D7200225E
:100D7300788474AAF2E418F2E47882F27884E2C206
:100D8300907D147C007F2E120F51D2907884E2253F
:100D9300E0F27D187C007F28120F517882E204F282
:100DA300E2C3940640D6788474AAF218E204F2E20D
:070DB300C3940240C3D2907B
:010DBA002216
:040B73007806EFF21F
:100B7700E408F2E47808F27807E22419F8E230E7AB
:100B87000CC2907806E2FD7C007F24800AC2907830
:100B970006E2FD7C007F17120F51D2907807E224FE
:100BA70019F8C000E225E0D000F27806E2FD7C00EB
:100BB7007F14120F517808E204F2E2C3940840B799
:0B0BC7007807E204F2E2C3940340A8A8
:010BD2002200
:100FCE007809EFF208ECF208EDF2D2937F141213C7
:100FDE0055C2A7781974C8F20874E0F27809E2785D
:100FEE001BF2120D2B780A08E2FF120B73D2A7D256
:020FFE0093223C
:10103600780CEFF208ECF208EDF2D2937F1412135B
:1010460055C2A7781974C8F20874E0F2780CE278F1
:101056001BF2120D2B780D08E2FF120B73C2A7C20A
:0410660093C290227F
:040C8B00780FEFF2FD
:100C8F00E408F212159E903000E4937819F2903038
:100C9F0001E49308F2903002E49308F2903003E4F9
:100CAF009308F2903004E49308F2780FE2781EF282
:100CBF00120D2BE47810F27BFE7A0079197D061263
:100CCF0010FA1212717810E204F2E2C3941E40E798
:030CDF0002159764
:040DBB007880EFF25B
:100DBF00E408F212159E903000E4937819F2903007
:100DCF0001E49308F2903002E49308F2903003E4C8
:100DDF009308F2903004E49308F27880E2781EF2E0
:100DEF00120D737BFE7A0079197D061210FA021527
:010DFF00975C
:05159E00D293C2A72258
:07159700D2A7C293C290220B
:1007BD0012159E781974C8F20874C1F2903000E4D5
:1007CD009308F2903001E49308F2903002E493081C
:1007DD00F2903003E49308F2903004E49308F2129F
:1007ED000D2B7BFE7A0079197D071210FA1212A5D6
:0307FD000215974B
:100A3D0020910F787CE204F2C394784002E4F2C274
:100A4D000022200041D200787CE2FFD39423401095
:100A5D00EFD39450500A7848E225E0F254FE80100E
:100A6D00787CE2D3945040147848E225E0F24401BA
:100A7D00F27859E204F2E4787BF28005787BE204A7
:100A8D00F2E4787CF222787BE204F2C3943C4009D4
:0A0A9D00E47859F2D2007851F222F9
:100AA70030B00F787CE204F2C394784002E4F2C2DB
:100AB7000022200041D200787CE2FFD3942340102B
:100AC700EFD39450500A7848E225E0F254FE8010A4
:100AD700787CE2D3945040147848E225E0F2440150
:100AE700F27859E204F2E4787BF28005787BE2043D
:100AF700F2E4787CF222787BE204F2C3943C40096A
:0A0B0700E47859F2D2007851F2228E
:100F10007859E264087039F27848E2FF7851E2FECD
:100F2000244AF8EFF2EE700C784AE2B4C806785121
:100F30007401F222EEB4010C784BE2B4E006785171
:100F40007402F222EEB40204D2078000E47851F277
:010F5000227E
:0708E9007811ECF208EDF2BA
:1008F000781974C8F20874E0F208EFF2E47813F2A1
:10090000E47814F27813E22419F8E230E70DC2A378
:100910007811E2FC08E2FD7F24800BC2A37811E28B
:10092000FC08E2FD7F17120F51D2A37813E22419BD
:10093000F8C000E225E0D000F27811E2FC08E2FD08
:100940007F0F120F517814E204F2E2C3940840B40E
:0B0950007813E204F2E2C3940340A518
:01095B002279
:07095C007815ECF208EDF242
:10096300781974C8F20874E0F208EFF2E47817F229
:10097300E47818F27817E22419F8E230E70DC2811F
:100983007815E2FC08E2FD7F24800BC2817815E232
:10099300FC08E2FD7F17120F51D2817817E2241968
:1009A300F8C000E225E0D000F27815E2FC08E2FD91
:1009B3007F0F120F517818E204F2E2C3940840B497
:0B09C3007817E204F2E2C3940340A5A1
:0109CE002206
:040512008222000041
:10125700782274FFF2087493F2782208E22401FFDF
:0A126700F218E23400F24F70F0229A
:10127100782274FDF20874E3F2782208E22401FF77
:0A128100F218E23400F24F70F02280
:10128B00782274FBF20874C7F2782208E22401FF7B
:0A129B00F218E23400F24F70F02266
:1012A500782274EAF20874E7F2782208E22401FF52
:0A12B500F218E23400F24F70F0224C
:1012BF007822742DF208740FF2782208E22401FFCD
:0A12CF00F218E23400F24F70F02232
:10135500AE071FEE60107C137D88ED1DAA04700199
:061365001C4A60EC80F45C
:01136B00225F
:070F51007885ECF208EDF2D7
:100F5800E408F208F2EFFDC37888E29D18E29400F5
:100F68005025E4FEEEFDD37886E29D7480F5F018F6
:100F7800E2648095F040030E80EA7888E22401F26A
:070F880018E23400F280CEF4
:010F8F00223F
:1011FE00E4FDFCC3ED9FEC9E5015E4FBFA0BBB0027
:0F120E00010AEB64644A70F50DBD00010C80E429
:01121D0022AE
:1012F300E4FDFCC3ED9FEC9E500EE4FB0BEBB4044A
:08130300FB0DBD00010C80EBA5
:01130B0022BF
:070F90007820EEF208EFF2F9
:100F9700E4F9E4FAFBD37821E29B18E29A40070BC5
:100FA700BB00010A80EF09E9B432E7E4F9209216A1
:100FB700E4FAFBC3EB9DEA9C50070BBB00010A80D8
:060FC700F209E9B432E773
:010FCD002201
:04051600C127C12612
:1011720012000020000912146AD200E47800F2D2B0
:1011820027E4786FF27F14121355E47800F23000EE
:0411920002C2002273
:10130C0020001012145B7800E2FE08E2FF120607C0
:09131C0012003A78667401F22215
:0B157300C226C221C227D284D28322EC
:100BD30030182B7870E2C394045023D206200D04FE
:100BE3007FC380027FC6120C8B12144C7870E20410
:100BF300F2C394044008E4F2C218C206C20C301ACD
:100C03002B7871E2C394045023D206200D047FC3D2
:100C130080027FC6120C8B1213D77871E204F2C3E1
:0D0C230094044008E4F2C21AC206C20C227A
:1011DC00301B1E786CE204F2C394034014E4F2C298
:1011EC001B7800F27866E270062000031213FDC231
:0211FC000022CF
:1013250030271420A411786FE204F2C39403400718
:08133500E4F2C2271213FD22AD
:101125003000247800E204F2D39405401AE47800F4
:10113500F208F27800F208F2C200C200C200C20052
:08114500C200C2007800F22292
:10136C00300E127849E2C39405500A7FC5120C8BDB
:06137C007849E204F222B0
:10138200302312787DE2C39405500A7FC4120C8B7D
:06139200787DE204F22266
:10139800302012783FE2C39405500A7FC2120C8BAA
:0613A800783FE204F2228E
:10106A007824EEF208EFF208ECF208EDF2EBFD7CE0
:10107A00007FC11208E9D2A2C2A37824E2FE08E2E4
:10108A00FF08E2FC08E2FD120F90D2A2D2A3C285A9
:01109A002233
:10109B007828EEF208EFF208ECF208EDF2EBFD7CAB
:1010AB00007FC112095CD2A2C2A37828E2FE08E23B
:1010BB00FF08E2FC08E2FD120F90C2A2C2A3C28598
:0110CB002202
:0E153C00D285C2A2D2A3120F90D2A2D2A322B5
:0E154A00D285C2A2D2A3120F90C2A2C2A322C7
:100E0000C221C226C20EC223E4783EF2785EF27896
:100E100052F27856F208F2785AF208F27872F20832
:100E2000F27858F2786BF2C206C2187870F2C21AE1
:100E30007871F2C2017853F2C20DC227786FF2C204
:050E400020783FF222C2
:1013FD00D221D226E4783EF2785EF2C227786FF2DF
:01140D0022BC
:08000300C2A41212BFD2A42214
:10133D0075DCC0782CE4F208741DF218E2FC08E2AA
:08134D00FDECF5D1EDF5D9220C
:100B1100EF14601F14603114604324037053782C68
:100B2100E4F208740DF218E2FC08E2FDECF5D2EDF6
:100B3100F5DA22782C7401F208E4F218E2FC08E2FA
:100B4100FDECF5D3EDF5DB22782CE4F2087480F2AC
:100B510018E2FC08E2FDECF5D5EDF5DD22782CE498
:100B6100F2087440F218E2FC08E2FDECF5D6EDF56E
:020B7100DE2282
:08158700E4FF120B1102133DF9
:07080000782EECF208EDF286
:100807007E007C2B7D331204D9E47B0CFAF9F812B5
:100817000441C3E49FFFE49E7830F27832EFF27828
:100827002EE2FE08E2FFEE3395E0FDFCE47B0BFAD7
:10083700F9F81203B6E47B0CFAF9F8120441C3E4A1
:100847009FFFE49EAD07FF7831F2AE057833EEF2F5
:100857007589117830E2F58C7832E2F58A8F8D8EC2
:0D0867008BD2A9C28CD2ABD28ED2BBD2AF45
:010874002261
:10114D007E007C2B7D331204D9E47B0CFAF9F81266
:10115D000441C3E49FFFE49E7830F27832EFF275DC
:04116D008921C28C86
:01117100225B
:0415A3004387012257
:1011960053A2BF75985A758920758BFD758DFDD242
:1011A6008E7F0112114DC299C298D2ACD2A9D2BC7F
:0311B600D2AF2293
:1011B90053A2BF75985A758920758BE8758DE8D249
:1011C9008E7F0112114DC299C298D2ACD2A9D2BC5C
:0311D900D2AF2270
:08158F008F993099FDC29922E9
:1010FA007882EBF208EAF208E9F2AF051DEF601A0E
:10110A007882E2FB0808E2F92401F218E2FA3400D4
:0B111A00F212039DFF12158F80E022EF
:03051A0081340128
:041000007889EFF20A
:10100400C2A01212A5D2A01212A5E4788AF278899D
:10101400E2FF08E2C39F5019D2A17F147E0012128E
:10102400F3C2A17F147E001212F3788AE204F280E4
:01103400DDDE
:011035002298
:10123C00C294C2A1C2A07F5E7E011212F3D2A07F23
:0B124C005E7E011212F3D294C29422C5
:01003A0022A3
:0F141F00D2947F041210007F50121355C29422F2
:0F142E00D2947F181210007F1E121355C2942201
:10140E00D2947F191210007F1E121355C294C2007F
:01141E0022AB
:1013C400D2947F021210007F5A121355C2947F1ECA
:0313D400021355AC
:0F143D00D2947F111210007F8C121355C294228B
:0F144C00D2947F0E1210007F50121355C29422BB
:1013D700D2947F031210007FB4121355C2947F1466
:0313E70002135599
:0F145B00D2947F0F1210007F3C121355C29422BF
:0F146A00D2947F101210007F3C121355C29422AF
:0F147900D2947F0D1210007F64121355C294227B
:0F148800D2947F141210007F78121355C2942251
:0F149700D2947F131210007F96121355C2942225
:0F14A600D2947F091210007F50121355C2942266
:0F14B500D2947F071210007F32121355C2942277
:0F14C400D2947F051210007F96121355C2942206
:0F14D300D2947F031210007F8C121355C2942203
:0F14E200D2947F021210007F78121355C2942209
:0F14F100D2947F0B1210007F50121355C2942219
:0F150000D2947F0B1210007F32121355C2942227
:0F150F00D2947F0F1210007F50121355C29422F6
:0F151E00D2947F0C1210007F50121355C29422EA
:0F152D00D2947F0D1210007F50121355C29422DA
:1013AE00300012C2007866E2700B200008200005A3
:0613BE0012142ED20022E1
:1013EA0075AF30C2AF75C7AA75C755439F01D2AF53
:0313FA000212E5F7
:1000260075AF301212E5C2AF75C7AA75C755539F93
:04003600FED2AF2225
:0C12D900E2FC08E2FDECF5A7AF058FA6D3
:0E12E500C2AF75C7AA75C75543A401D2AF2288
:10000E007880EEF208EFF21213EA75AF22788012C2
:05001E0012D9020026CA
:0610CC00784CE2FD7E30CD
:1010D2007880EEF208EFF208EDF21213EA75AF2112
:1010E2007880E2FC08E2FDECF5A7AF058FA608E2E6
:0810F200F5AE1212E502002622
:07121E007835EEF208EFF253
:101225001213EAE4F5AF78351212D908E5AEF212D9
:0612350000267837E2FFFD
:01123B002290
:100E8A007F007E3012000E784AE2FD7F007E30122B
:100E9A0010D2784BE2FD7F017E301210D27F02120F
:100EAA0010CC784DE2FD7F037E301210D2784EE2EC
:100EBA00FD7F047E301210D2784FE2FD7F057E302E
:030ECA000210D241
:100ECD007F007E3012000E7F001210CC784DE2FDB7
:100EDD007F017E301210D2784EE2FD7F027E3012FD
:100EED0010D2784FE2FD7F037E301210D27850E29F
:100EFD00FD7F047E301210D27851E2FD7F057E30E9
:030F0D000210D2FD
:03051D00813A0020
:100C3000E47889F27889E2FFC3940A5048EF75F0AE
:100C400007A4242CF8E6D3940040337889E2FF759A
:100C5000F007A4242CF816EF75F007A42426F8E674
:100C6000FE08E6AA06F91204D37889E2FF75F007B8
:100C7000A4242AF8E6FC08E64C7003120E45788995
:0B0C8000E204F280AF1215AB0215A7D2
:0709CF007838EEF208EFF2A8
:1009D600E4FFEF75F007A42426F8E6F58308E6455C
:1009E600836009EFC3940A50030F80E6EFB40A0848
:1009F600783A7401F27F0A227838E2F58308E2F544
:100A060082EF75F007A42426F8A68308A682EF7560
:100A1600F007A42428F8A60408A605AC02AD03EF47
:100A260075F007A4242AF8A60408A605EF75F007B2
:060A3600A4242CF8760157
:010A3C002297
:100E4500EF75F007A42426F8E6FC08E64C70057853
:100E55003A7402F2EF75F007A42426F8E4F608F6D2
:100E6500EF75F007A42428F8E4F608F6EF75F00707
:100E7500A4242AF8E4F608F6EF75F007A4242CF864
:040E8500E4F6A228C5
:010E89002246
:100CE200E4FDED75F007A42426F8E6FA08E66F7035
:100CF20002EA6E702EED75F007A42426F8E4F608D9
:100D0200F6ED75F007A42428F8E4F608F6ED75F080
:100D120007A4242AF8E4F608F6ED75F007A4242CBB
:080D2200F8E4F60DEDB40ABA85
:010D2A0022A6
:0115AB00221D
:0415A7004387012253
:10052000C106C121C118C11A817000817100C10EBC
:10053000C123815200825A0000816B0081580082E1
:10054000720000C101813E0082560000815E008180
:100550006D00817D0081490082690000874A0000AA
:100560000000000000C1078151008148008159004E
:10057000C180817B00817C00816300816200827682
:100580000000C10581660082540000815300C12033
:10059000813F00C10482420000C11982670000C18E
:1005A0000DC11B816C00816F00C10CC11C827400E5
:1005B000008246000082440000C11EC10AC103C17E
:1005C0000982790000C11FC111C190816100C10B76
:1005D000C122C108825C0000825F0000C112C11309
:1005E000C114C115C116C117817800826400008250
:1005F0007E0000C10FC11DC102814100C1258140A3
:0606000000816E00C12420
:1007470012123C1211B9D28CD280D28143EC0343EE
:10075700EB0353EAFE43E902D2AFD2A4D290C2948C
:10076700D290E47844F208F2C206C2A7C293D282BA
:10077700120C30300B07D2E9C20B43870230060850
:100787001214C4120003C206301E081214D312003A
:1007970003C21E300A081214E2120003C20A30090B
:1007A7000812150F120003C2093020C41214F1C237
:0607B7002012000380BACD
:03000B0002003EB2
:10003E00C0E0C0F0C083C082C0D075D000C000C088
:10004E0001C002C003C004C005C006C0077830E27C
:10005E00F58C7832E2F58A786908E22401FFF2180D
:10006E00E23400FEF2C3EF94D0EE94074070121506
:10007E00667854E2FE08E2FFD39468EE94035008CB
:10008E00D202C225C2248013C3EF947AEE940340A9
:10009E0006D225C2028004C202C225300211784166
:1000AE00E204F2D3941440071214A67841E4F2301D
:1000BE0017267878E204F2D3940A401C785CE4F2B6
:1000CE0008F2785FF208F2C212C213C214C215C24D
:1000DE0016C217C20F7878F27869E4F208F230A6E9
:1000EE000F200B0CD282C293C2A7C291C290D20B28
:1000FE00208226201723786408E22401FFF218E2FA
:10010E003400FEF2D3EF94FAEE9400400CD282C289
:10011E0093C291C290E4F208F230822B2017287815
:10012E007E08E22401FFF218E23400FEF2D3EF94CF
:10013E00E8EE94034011C2827FC1120DBBC293D26E
:10014E0091787EE4F208F2208042785CE4F208F2C4
:10015E00785F08E22401FFF218E23400FEF2D3EFDA
:10016E0094A0EE940F4013740FF20874A2F2C21210
:10017E00C213C214C215C216800CD212301302D290
:10018E0014301502D216C202C2258053785FE4F2F3
:10019E0008F2301202D213301402D215301616D2D3
:1001AE0017C2827864E4F208F2C293D291200F054E
:1001BE00120003D20F785C08E22401FFF218E23439
:1001CE0000FEF2D3EF94A0EE940F4013740FF208DA
:1001DE0074A2F2C212C213C214C215C216C20F30DA
:1001EE000822C208C212C213C214C215C216C21706
:1001FE00C20F120ECD1200037F0A12135512000306
:10020E007878E4F2D007D006D005D004D003D0021F
:0F021E00D001D000D0D0D082D083D0F0D0E03249
:0300230002022DA9
:10022D00C0E0C083C082C0D075D000C000C006C081
:10023D0007209802618EC2987851E2FF244AF8E5B2
:10024D0099F2301702612DEF701290300093FF7804
:10025D004AE2B5070778517401F280737851E2B420
:10026D000113903001E493FF784BE2B50707785105
:10027D007402F2805A7851E2FFB40213903002E416
:10028D0093FE784CE2B5060778517403F28040EF87
:10029D00B40313903003E493FF784DE2B50707786C
:1002AD00517404F280297851E2B40413903004E4BF
:1002BD0093FF784EE2B5070778517405F2801078F8
:1002CD0051E2B40506D207E4F280047851E4F2203D
:1002DD000702618EC207784FE2243D601314601A45
:1002ED0014602814603624046002618ED220618E61
:1002FD00D206787DE4F2C21E800AD21E7844E4F262
:10030D0008F2C2067849F2C20A8076D20A7844E42D
:10031D00F208F2C206787DF2C21E8065D2098061B4
:10032D007851E2700D784AE2B4C80778517401F241
:10033D00804F7851E2FFB4010D784BE2B4C10778DC
:10034D00517402F2803BEFB4020778517403F280CE
:10035D00307851E2FFB403057404F28024EFB40445
:10036D000778517405F28019EFB4050778517406BA
:10037D00F2800EEF7851B40606E4F2D2088002E462
:10038D00F2D007D006D000D0D0D082D083D0E032CA
:03003B0002155853
:0E155800C2E953EAFCC282C293D291D21D3284
:030000000206BB3A
:0C06BB00787FE4F6D8FD75816B02070221
:10039D00BB010689828A83E0225002E722BBFE025E
:0903AD00E32289828A83E4932291
:1003B600E88FF0A4CC8BF0A42CFCE98EF0A42CFCE6
:1003C6008AF0EDA42CFCEA8EF0A4CDA8F08BF0A464
:1003D6002DCC3825F0FDE98FF0A42CCD35F0FCEBC3
:1003E6008EF0A4FEA9F0EB8FF0A4CFC5F02ECD3988
:0F03F600FEE43CFCEAA42DCE35F0FDE43CFC22F5
:1004050075F008758200EF2FFFEE33FECD33CDCCAE
:1004150033CCC58233C5829BED9AEC99E582984031
:100425000CF582EE9BFEED9AFDEC99FC0FD5F0D60E
:10043500E4CEFBE4CDFAE4CCF9A88222B800C1B938
:100445000059BA002DEC8BF084CFCECDFCE5F0CB76
:10045500F97818EF2FFFEE33FEED33FDEC33FCEBAF
:1004650033FB10D703994004EB99FB0FD8E5E4F96A
:10047500FA227818EF2FFFEE33FEED33FDEC33FC57
:10048500C933C910D7059BE99A4007EC9BFCE99A4B
:10049500F90FD8E0E4C9FAE4CCFB2275F010EF2F90
:1004A500FFEE33FEED33FDCC33CCC833C810D70790
:1004B5009BEC9AE899400AED9BFDEC9AFCE899F8CB
:0E04C5000FD5F0DAE4CDFBE4CCFAE4C8F9225E
:0604D3008A838982E473B4
:1004D900EC8EF0A4CCC5F0CCCDF8EFA4CEC5F02DB0
:1004E900FDE43CFCE8A42EC8C5F03DFDE43CFCEF6E
:0D04F900A4FFE5F028FEE43DFDE43CFC22FC
:1006C700020747E493A3F8E493A34003F68001F2FB
:1006D70008DFF48029E493A3F85407240CC8C33334
:1006E700C4540F4420C8834004F456800146F6DF03
:1006F700E4800B0102040810204080900506E47E88
:10070700019360BCA3FF543F30E509541FFEE493F7
:10071700A360010ECF54C025E060A840B8E493A3BE
:10072700FAE493A3F8E493A3C8C582C8CAC583CAE9
:10073700F0A3C8C582C8CAC583CADFE9DEE780BEA1
:0106060000F3
:00000001FF
