:030000000203E513
:0C03E500787FE4F6D8FD75817002042CCE
:0407ED0041004F0078
:10058000E4900057F0900057E0FFC3940A505BEFEF
:1005900075F008A42428F8E66048E075F008A42463
:1005A00027F8E6D39400403AEF75F008A42421F828
:1005B000E6FE08E6AA06F9120180900057E0FF75F2
:1005C000F008A42427F816EF75F008A42425F8E60F
:1005D000FE08E64E700CE075F008A42421F8E4F65D
:1005E00008F6900057E004F0809B1207FE0200031B
:0E047100900057EEF0A3EFF0A3ECF0A3EDF037
:10047F00E4FFEF75F008A42421F8E6FC08E64C60D1
:10048F0009EFC3940A50030F80E8EFB40A099000F4
:10049F004F7401F07F0A22900057E0FCA3E0FDEFBC
:1004AF0075F008A42421F8A60408A605A3E0FCA370
:1004BF00E0FDEF75F008A42423F8A60408A605AC08
:1004CF0002AD03EF75F008A42425F8A60408A605CD
:1004DF00A202E433FEEF75F008A42428F8A606EF75
:0904EF0075F008A42427F8E4F6D6
:0104F80022E1
:1006A100EF75F008A42421F8E6FC08E64C700A90E6
:1006B100004F7402F0D2028002C202EF75F008A46A
:1006C1002421F8E4F608F6EF75F008A42423F8E4F1
:1006D100F608F6EF75F008A42425F8E4F608F6EF1D
:0B06E10075F008A42427F8E4F6A2023C
:0106EC0022EB
:0107FE0022D8
:04000300438701220C
:05064F00900057EFF0E0
:10065400E4A3F0900058E0FFC3940A500B1206A1E3
:10066400900058E004F080EB900057E0FF7E007C9F
:10067400007D0B120186E47B0CFAF9F8120077C3B3
:10068400E49FFFE49EAD07FC900053F0900055EF0B
:0C069400F05389F0438901120800D2A93C
:0106A0002237
:03081C00D2AF2236
:040007004387012208
:10080000C28C900055E0F58A900053E0F58CD28CB4
:0108100022C5
:03000B000204F9F3
:1004F900C0E0C0F0C083C082C0D075D000C000C0C9
:0505090004C005C0075D
:10050E00120800E4FFEF75F008A42421F8E6FC08B9
:10051E00E64C6046EF75F008A42423F8E6FC08E6E6
:10052E004C7028EF75F008A42427F806EF75F00834
:10053E00A42425F8E6FC08E6FD4C601EEF75F008D5
:10054E00A42423F8A60408A605800FEF75F008A4CE
:0F055E002423F808E616187001160FEFB40AA64A
:10056D00D007D005D004D000D0D0D082D083D0F029
:03057D00D0E03299
:1005F000900001E0FFA3E0FEC39F5017740C2EF59E
:1006000082E43400F583E0FF1201B3900002E004BD
:10061000F08007E4900001F0A3F0309831900003DF
:10062000E0FF900000E0B50706E4F0900003F090D2
:100630000000E0FF2404F582E43400F583E599F03E
:0F064000EFC394085006900000E004F0C2982227
:1007B400900001E0FEC394325013740C2EF582E4D1
:1007C4003400F583EFF0900001E004F02290004F34
:0407D4007416F02285
:0B073900900057EBF0A3EAF0A3E9F0FA
:10074400E4FD900057E0FBA3E0FAA3E0F98D827585
:0E075400830012000EFF60061207B40D80E451
:010762002274
:100763007F7F900000E0FE900003E0FDC39E5018E1
:1007730074042DF582E43400F583E0FFEDC394089F
:080783005006900003E004F0B1
:01078B00224B
:0601B30090003EEFF0FB9E
:1001B900A312014F0000000090004312014F0000FC
:1001C9000000EB640A60024182309874E599641377
:1001D900706E90004312014F00000000C298900019
:1001E9003F12014F0000000090003F12011AEC4D30
:1001F9004E4F60033098F1E4FFFEFDFC90003FE0B4
:10020900F8A3E0F9A3E0FAA3E0FBC3120109700225
:10021900611090004312011AEC4D4E4F6005E599AB
:10022900B411B9E4FFFEFDFC900043E0F8A3E0F946
:10023900A3E0FAA3E0FBC312010970026110C2989E
:1002490090003F12014F0000000090003F12011A78
:10025900EC4D4E4F60033099F1E4FFFEFDFC900038
:100269003FE0F8A3E0F9A3E0FAA3E0FBC312010918
:1002790070026110C29975990D309859E599641306
:10028900705390004312014F00000000C298900083
:100299003F12014F0000000090003F12011AEC4D7F
:1002A9004E4F60033098F1E4FFFEFDFC90003FE003
:1002B900F8A3E0F9A3E0FAA3E0FBC3120109700275
:1002C900804590004312011AEC4D4E4F6005E599A7
:1002D900B411B9C29890003F12014F00000000907C
:1002E900003F12011AEC4D4E4F60033099F1E4FFC3
:1002F900FEFDFC90003FE0F8A3E0F9A3E0FAA3E0DB
:10030900FBC3120109700790004F7415F022C299BE
:0603190090003EE0F599A2
:01031F0022BB
:0B08110053657269616C204F4B0A00B8
:1006ED0053877F7598724389207C2E7DE012018699
:1006FD00A804A905AA06AB077F007E707D997C141E
:10070D00120077EFF404F58D858D8BD28ED299E49E
:10071D00900003F0900000F0900002F0900001F0C6
:0C072D007BFF7A087911120739C2AC2258
:10078C007FF412064F1207D87F807E251206ED7E6D
:10079C00037F20D2027B017A007DE87C0312047176
:0807AC0012081C12058080FBFD
:0C07F1004100490041004D0041004E0055
:1007D800D2A2D2A390004A74C8F0A374E0F0A37424
:0507E800C1F0C2002277
:1003200020000261B420A37B90004DE0FF244AF539
:1003300082E43400F583E0FE30E723900049E004D6
:10034000F0E0C3940A403EE4F090004EE004F0D2A6
:10035000A3744A2FF582E43400F583EE80249000E4
:1003600049E004F0E0C39404401BE4F090004EE048
:1003700004F0D2A390004DE0244AF582E43400F565
:1003800083E025E0F090004EE0C394084056E4F08E
:1003900090004DE004F0E0D394024048E4F0D2A392
:1003A000C20022900049E004F0E0C394044035E428
:1003B000F0C2A322300106D2A2C2A38004C2A2D2FC
:1003C000A3900048E004F07006900047E004F0C3FA
:1003D000900048E09488900047E094134006E4F0D1
:0503E000A3F0B20122B0
:03081F00D2A5223D
:03082200D2A5223A
:1003F10002078CE493A3F8E493A34003F68001F28F
:1004010008DFF48029E493A3F85407240CC8C3330C
:10041100C4540F4420C8834004F456800146F6DFDB
:10042100E4800B01020408102040809007EDE47E77
:10043100019360BCA3FF543F30E509541FFEE493D0
:10044100A360010ECF54C025E060A840B8E493A397
:10045100FAE493A3F8E493A3C8C582C8CAC583CAC2
:10046100F0A3C8C582C8CAC583CADFE9DEE780BE7A
:0107FD0000FB
:10000E00BB010CE58229F582E5833AF583E02250A7
:10001E0006E92582F8E622BBFE06E92582F8E222F1
:0D002E00E58229F582E5833AF583E493220B
:10003B0075F008758200EF2FFFEE33FECD33CDCC7C
:10004B0033CCC58233C5829BED9AEC99E5829840FF
:10005B000CF582EE9BFEED9AFDEC99FC0FD5F0D6DC
:10006B00E4CEFBE4CDFAE4CCF9A88222B800C1B906
:10007B000059BA002DEC8BF084CFCECDFCE5F0CB44
:10008B00F97818EF2FFFEE33FEED33FDEC33FCEB7D
:10009B0033FB10D703994004EB99FB0FD8E5E4F938
:1000AB00FA227818EF2FFFEE33FEED33FDEC33FC25
:1000BB00C933C910D7059BE99A4007EC9BFCE99A19
:1000CB00F90FD8E0E4C9FAE4CCFB2275F010EF2F5E
:1000DB00FFEE33FEED33FDCC33CCC833C810D7075E
:1000EB009BEC9AE899400AED9BFDEC9AFCE899F899
:0E00FB000FD5F0DAE4CDFBE4CCFAE4C8F9222C
:10010900EB9FF5F0EA9E42F0E99D42F0E89C45F04C
:0101190022C3
:10011A007401FF3395E0FEFDFCA3A3A3E02FFFF0DB
:10012A00E582158270021583E03EFEF0E5821582B3
:10013A0070021583E03DFDF0E58215827002158399
:05014A00E03CFCF02286
:10014F00A8828583F0D083D08212016612016612D5
:10015F000166120166E473E493A3C583C5F0C583FA
:10016F00C8C582C8F0A3C583C5F0C583C8C582C8FA
:01017F00225D
:060180008A838982E4730A
:10018600EC8EF0A4CCC5F0CCCDF8EFA4CEC5F02D06
:10019600FDE43CFCE8A42EC8C5F03DFDE43CFCEFC4
:0D01A600A4FFE5F028FEE43DFDE43CFC2252
:00000001FF
