:0300000002076193
:0C076100787FE4F6D8FD7581720207A8CD
:030F9500810000D8
:10097500E47845F27845E2FFC3940A505EEF75F0DE
:1009850008A4242AF8E6604C7845E2FF75F008A42F
:100995002429F8E6D39400403BEF75F008A42423FE
:1009A500F8E6FE08E6AA06F91203EB7845E2FF75BC
:1009B500F008A42429F816EF75F008A42427F8E612
:1009C500FE08E64E700E7845E275F008A42423F87B
:1009D500E4F608F67845E204F28099120022020F47
:0109E5009180
:07087F007845EEF208EFF2EC
:10088600E4FFEF75F008A42423F8E6F58308E645AF
:10089600836009EFC3940A50030F80E6EFB40A0899
:1008A60078007401F27F0A227845E2F58308E2F5C2
:1008B60082EF75F008A42423F8A68308A682EF75B4
:1008C600F008A42425F8A60408A605AC02AD03EF9B
:1008D60075F008A42427F8A60408A605A216E43392
:1008E600FEEF75F008A4242AF8A606EF75F008A412
:0508F6002429F8E4F6DE
:0108FB0022DA
:100B9900EF75F008A42423F8E6FC08E64C70097800
:100BA900007402F2D2168002C216EF75F008A4246E
:100BB90023F8E4F608F6EF75F008A42425F8E4F61E
:100BC90008F6EF75F008A42427F8E4F608F6EF759F
:0A0BD900F008A42429F8E4F6A2169F
:010BE30022EF
:0100220022BB
:040F9100438701226F
:070B49007845EEF208EFF21F
:100B5000E408F27847E2FFC3940A500A120B99782E
:100B600047E204F280ED7845E2FE08E2FF7C007D7A
:100B70000B1203F1E47B0CFAF9F812034BC3E49F68
:100B8000FFE49EAD07FC7804F27806EFF25389F09B
:080B9000438901120EC8D2A92D
:010B9800223A
:030F9900D2AF22B2
:0F0EC800C28C7806E2F58A7804E2F58CD28C228F
:03000B00020800E8
:10080000C0E0C0F0C0D075D000C000C004C005C0BA
:0108100007E0
:10081100120EC8E4FFEF75F008A42423F8E6FC08E3
:10082100E64C6046EF75F008A42425F8E6FC08E6DE
:100831004C7028EF75F008A42429F806EF75F0082C
:10084100A42427F8E6FC08E6FD4C601EEF75F008CD
:10085100A42425F8A60408A605800FEF75F008A4C6
:0F0861002425F808E616187001160FEFB40AA642
:0F087000D007D005D004D000D0D0D0F0D0E032E7
:100CC800D2A2D2A3E4780FF218F27808F208F2431D
:100CD800B30453B4FBD285780B74C8F20874E0F2FD
:0B0CE8000874C1F2D208D296C2A42208
:1004FC00120C9A301068200965300562D211300850
:10050C00051208FC8058D2A2C2A37809E22401F299
:10051C0018E23400F2E2FE08E2FFD394D0EE940726
:10052C00403CEF9488EE94135003309231E47808F9
:10053C00F208F2D209C211120F58D2A2D2A320068D
:10054C00057F0F120F87D214E4782BF2C213780BAD
:10055C0074C8F20874E0F20874C1F2D208223010A8
:10056C0003301365300962D211D285D296C2A4C26F
:10057C00A2D2A37809E22401F218E23400F2E2FEDE
:10058C0008E2FFD394D0EE9407403EEF9488EE94AB
:10059C00135003309233E47808F208F2C209C21106
:1005AC00D2A2D2A3120F58D201781EE2FF08E27831
:1005BC001CCFF208EFF22006057F10120F87C2063F
:0A05CC00E47844F2782BF2C2132207
:1008FC0020A366780EE2FF240BF8E2FE30E71E78A8
:10090C000AE204F2E2C3940A4034E4F2780FE204FF
:10091C00F2D2A3740B2FF8EE25E0F28021780AE2D4
:10092C0004F2E2C394044016E4F2780FE204F2D22B
:10093C00A318E2240BF8C000E225E0D000F2780FF7
:10094C00E2C394084022E4F218E204F2E2D39402E7
:10095C004016E4F2D2A3C20822780AE204F2E2C3FF
:09096C0094044004E4F2C2A32249
:100DB30078107455F208F20874FFF2087455F208BB
:100DC3007450F2E408F27BFE7A0079107D06020C7F
:010DD300F32C
:0D0F1100C294C2A0C2A1E47818F2D20A2254
:070AF6007845EFF208EDF274
:100AFD00D294C2A07F037EEE120E45D2A07F037E5C
:100B0D00EE120E45E47847F27845E2FF7847E2C3EE
:100B1D009F5019D2A17FA47EFF120E45C2A17FA4C2
:100B2D007EFF120E457847E204F280DC7846E278CB
:0B0B3D0019F27817E264186002E4F27D
:010B4800228A
:050F87007817EFF222D3
:010F9F00222F
:1001C5003094177818E204F208E2FF18E2D39F5042
:1001D5000241F5E4F2C294C200227817E214B41E7B
:1001E50000400241F59001F425E05002058373417A
:1001F500304136413C4146414C41524158415E41B6
:1002050064416A4170417B4186418C419A41AA41D2
:10021500B441BA41F541C441CA41D041D641F54145
:10022500DC41E241F541F541E841EE7D017F0141C7
:10023500F27D037F0241F27D097F03120AF6C20DAA
:10024500227D047F0480727D057F05806C7D057F9E
:100255000680667D057F0780607D057F08805A7D65
:10026500057F0980547D057F0A41F27D027F0B12CF
:100275000AF67F0C801C7D027F0C120AF67F0A802D
:10028500117D037F0D8066D20D7D037F0E120AF668
:100295007F03020F877D037F0F120AF6200A0312E0
:1002A500005EC20A227D037F10120AF602005E7DFF
:1002B500077F1180387D037F12120AF6020F9F7D9A
:1002C500017F1480287D017F1580227D017F1680A6
:1002D5001C7D017F1780167D027F1980107D057FAB
:1002E5001A800A7D017F1D80047D017F1E120AF69A
:0102F50022E6
:100C9A007817E2FF6418702530941608E204F20807
:100CAA00E2FE18E2D39E4015E4F2C294C20018F2A2
:0E0CBA0022EF24E870077DE87F18120AF62268
:100E4500781AEEF208EFF2781A08E22401FFF21898
:080E5500E23400F24F70F022BC
:100E750043F64043B14053B2BFD2FAC2F9D2F8D2D9
:070E8500AED2AF43E1802271
:050F8C00C2FCD2FB22B3
:10005E00781CE2FE08E2FFC3941FEE94025007786C
:10006E00207430F2800ED3EF9424EE940240057883
:10007E0020743CF27820E224C470022117240C6014
:10008E000221C4C3781DE294FF18E29401400221BC
:10009E0023781CE2FE08E2FFC394FFEE9401500B9E
:1000AE00C3EF94F7EE94014002215B781CE2FE0848
:1000BE00E2FFC394F7EE9401500BC3EF94EFEE946E
:1000CE000140022177781CE2FE08E2FFC394EFEEB6
:1000DE009401500BC3EF94E6EE9401400221937805
:1000EE001CE2FE08E2FFC394E6EE9401500BC3EF50
:1000FE0094DFEE9401400221AFC3781DE294DF1825
:10010E00E29401400221C421BFC3781DE2947E18FF
:10011E00E2940240047F1221C1781CE2FE08E2FF45
:10012E00C3947EEE9402500DC3EF946EEE94024093
:10013E00047F09807E781CE2FE08E2FFC3946EEE17
:10014E009402500DC3EF945BEE940240047F08803E
:10015E0062781CE2FE08E2FFC3945BEE9402500D3F
:10016E00C3EF9455EE940240047F078046781CE25C
:10017E00FE08E2FFC39455EE9402500DC3EF944C6B
:10018E00EE940240047F06802A781CE2FE08E2FF0D
:10019E00C3944CEE9402500DC3EF9444EE9402407F
:1001AE00047F05800EC3781DE2944418E294025039
:0701BE00057F04120F8722E8
:03005B000209E6B1
:1009E600C0E0C0D075D000C000C001C006C007C2BC
:1009F600FCC2FBAFF87821E4F208EFF218E2FE0839
:100A0600E27806CEC313CE13D8F97922F3EE19F3A2
:100A1600AFE2781EE4F208EFF218E2FE08E278028E
:100A2600C333CE33CED8F9FF7822E22F791FF318DD
:100A3600E23E19F3D007D006D001D000D0D0D0E0E6
:010A4600327D
:100026002000092011063003033007227829E2B4A4
:10003600022218E22401F218E23400F2D308E29414
:10004600DC18E29405400DC200E4F208F222120622
:05005600A0120D912233
:100D910020810A200207D202D200D20C2230811116
:100DA10030020EC202120F43E47818F27F18120FBC
:020DB100872297
:100E130043B18353B27CE47824F27829F2C200C24E
:090E230003C2017823F2C202228D
:0C0F2B00E47824F27829F2C200C203220C
:030F9C00D203225B
:100E8C003001127823E204F2E2D3940A4007C20143
:060E9C00E4F2120F9C229B
:1006A0007829E224FE602E14607024036002E16069
:1006B00030870630800320A6177824E204F2E2C3D4
:1006C00094015002E160E4F278297402F2D200222F
:1006D000E47824F22230870630800320A620782494
:1006E000E204F2E408F208F27824E2C394024070D3
:1006F000E4F278297403F2D2007F02020F87E478D3
:1007000024F27826E22401F218E23400F2D308E25F
:10071000947018E294174048803F30870630800379
:1007200020A61C7824E204F2E408F208F27824E21D
:10073000C39402402BE4F27829F2D200D20C22E4D6
:100740007824F27826E22401F218E23400F2D30889
:10075000E2947018E294174007E4F208F27829F264
:010760002276
:070F7200C20DE4782AF2220F
:100DF500300C1A209417200D147F0E120F87782AB5
:0E0E0500E204F2E2C394044004E4F2C20C22C0
:0B0F4300E4782AF2C20CC294C20D2216
:0F0ED700120F8C120E5D120E8C120EA2020D6CF9
:100D6C0030A51D30871A30801730A61420821178D8
:100D7C002BE204F2E2D3943C400A740BF2D213221D
:050D8C00E4782BF222C7
:0A0F4E00120F58E4782BF2C21322B0
:0A0F5800E4782CF2C2057844F2227E
:100E5D00300514201111782CE204F2E2D3940540F0
:080E6D0006120F58120F9C221F
:0C0F3700120A471207ED120A9F020D4635
:100D4600301422782EE22401F218E23400F2D3089D
:100D5600E294D018E29407400CE4F208F2C285C28D
:060D660096D2A4C2142283
:0F0EE600120F1E120F03C214E4782DF208F2222D
:0D0F1E0043B10253B2FDE47832F218F22222
:100A470030A5283081257830E22401F218E23400FD
:100A5700F2C308E2947018E29417402A7417F20858
:100A67007471F2E47832F2C215801B30A518208128
:100A770015C37830E2942C18E294014009E4F20897
:100A8700F27832E204F27832E2D394054009E4F2D4
:080A9700D2157F19120F87220E
:1007ED0030150F30040C120BE4C204C2157F191220
:0307FD000F872241
:100EA20030150F7831E204F2E2D394054004E4F203
:030EB200C2152244
:100BE4007F007E30120DD47840E2FD7F007E30120B
:100BF4000D1E783FE2FD7F017E30120D1E783EE22D
:100C0400FD7F027E30120D1E783DE2FD7F037E30B3
:100C1400120D1E783CE2FD7F047E30120D1E783BDF
:090C2400E2FD7F057E30020D1E89
:100EB50075AF30C2AF75C7AA75C755439F01D2AF8D
:030EC500020EF525
:10000E0075AF30120EF5C2AF75C7AA75C755539F9F
:04001E00FED2AF223D
:0E0EF500C2AF75C7AA75C75543A401D2AF227C
:100DD4007845EEF208EFF2120EB575AF227845E2CF
:100DE400FC08E2FDECF5A7AF058FA6120EF5020094
:010DF4000EF0
:100D1E007845EEF208EFF208EDF2120EB575AF213E
:100D2E007845E2FC08E2FDECF5A7AF058FA608E2D8
:080D3E00F5AE120EF502000EE5
:0E0F0300C20EC20FE47834F208F27833F22204
:100A9F0030870930800630A6033082167833E2049F
:100AAF00F2E2C39402400FD20ED20FE408F208F222
:100ABF008004E47833F2200E03300F2A7835E224D5
:100ACF0001F218E23400F2E2FE08E2FFD39488EE5E
:100ADF0094134012C20ED3EF9410EE94274007E404
:070AEF0018F208F2C20F2209
:1005D600120F117F807E25120C2D7FF47E01120BE7
:1005E60049120CC8120F79120E75120E13120F72E1
:1005F600120F4E120EE6120F807E047FFCD2167B7F
:10060600017A007DE87C0312087F7E0C7F64D21697
:100616007BC87A007DDC7C0512087F7E017FC5D20F
:10062600167BE87A037DDC7C0512087F7E0D7FF55C
:10063600D2167BD07A077DB87C0B12087F7E0E7FA0
:10064600D7D2167BA07A0F7DDC7C0512087F7E0F41
:100656007F37D2167B017A007DD07C0712087F7E19
:10066600007F03D2167B787A697DC87C0012087FEA
:100676007E0F7F62D2167B787A697D987C3A120863
:100686007F7E0E7F2CD2167B017A007DD07C0712EE
:0A069600087F120F9912097580FB0E
:070F7900D2A5E47837F22253
:100C640020113220942F30A5167837E204F2E2D313
:100C7400940540067405F2D21022E47836F222E498
:100C84007837F2200E0F18E204F2E2D3940F4005F5
:060C9400740FF2C21022F1
:0800030030A504D206D205224B
:080F620030A504D206D21322CF
:100E2C0020801520A5127824E204F2E2C39401403C
:090E3C0007E4F27F18120F87226F
:070F8000D206C205C21322D4
:100C2D005387BF53A2BF75985A53890F438920AB81
:100C3D0007AA06E4F9F87F807E70FDFC12034B12C3
:100C4D0003DD8F8B8F8DD28EC299D2ACE47843F2B7
:070C5D0008F2C206C20722E3
:080F6A008F993099FDC2992214
:100CF3007838EBF208EAF208E9F2AF051DEF601A63
:100D03007838E2FB0808E2F92401F218E2FA340029
:0B0D1300F21202F6FF120F6A80E022CD
:0300230002041EB6
:10041E00C0E0C0F0C083C082C0D075D000C000C0A4
:10042E0001C002C003C004C005C006C00720980268
:10043E0081E1C29878427405F27842E2FF243AF8DC
:10044E00E2FE743B2FF8EEF27842E214F2E270E92B
:10045E00783BE599F23015117843E204F2E2C39449
:10046E00064070E4F2D204806A903000E493FF7884
:10047E0040E26F705EA393FF18E26F7056A393FF76
:10048E0018E26F704EA393FF18E26F7046A393FFAE
:10049E0018E26F703EA393FF18E26F7036120F438F
:1004AE00120F2B7818E4F27F18120F87D205782CD2
:1004BE00E4F27844E204F2E2FFD394014002D20661
:1004CE00EFD39405400DB2077844E4F27F19120F72
:1004DE0087C206D007D006D005D004D003D002D0F4
:0E04EE0001D000D0D0D082D083D0F0D0E03248
:10076D000205D6E493A3F8E493A34003F68001F2C7
:10077D0008DFF48029E493A3F85407240CC8C3338D
:10078D00C4540F4420C8834004F456800146F6DF5C
:10079D00E4800B0102040810204080900F95E47E48
:1007AD00019360BCA3FF543F30E509541FFEE49351
:1007BD00A360010ECF54C025E060A840B8E493A318
:1007CD00FAE493A3F8E493A3C8C582C8CAC583CA43
:1007DD00F0A3C8C582C8CAC583CADFE9DEE780BEFB
:010F98000058
:1002F600BB010689828A83E0225002E722BBFE0206
:09030600E32289828A83E4932238
:10030F0075F008758200EF2FFFEE33FECD33CDCCA5
:10031F0033CCC58233C5829BED9AEC99E582984028
:10032F000CF582EE9BFEED9AFDEC99FC0FD5F0D605
:10033F00E4CEFBE4CDFAE4CCF9A88222B800C1B92F
:10034F000059BA002DEC8BF084CFCECDFCE5F0CB6D
:10035F00F97818EF2FFFEE33FEED33FDEC33FCEBA6
:10036F0033FB10D703994004EB99FB0FD8E5E4F961
:10037F00FA227818EF2FFFEE33FEED33FDEC33FC4E
:10038F00C933C910D7059BE99A4007EC9BFCE99A42
:10039F00F90FD8E0E4C9FAE4CCFB2275F010EF2F87
:1003AF00FFEE33FEED33FDCC33CCC833C810D70787
:1003BF009BEC9AE899400AED9BFDEC9AFCE899F8C2
:0E03CF000FD5F0DAE4CDFBE4CCFAE4C8F92255
:0E03DD00C3E49FFFE49EFEE49DFDE49CFC2231
:0603EB008A838982E4739D
:1003F100EC8EF0A4CCC5F0CCCDF8EFA4CEC5F02D99
:10040100FDE43CFCE8A42EC8C5F03DFDE43CFCEF56
:0D041100A4FFE5F028FEE43DFDE43CFC22E4
:00000001FF
