:030000000206975E
:0C069700787FE4F6D8FD7581720206DE63
:030EFB0081000073
:1008F600E4784AF2784AE2FFC3940A505EEF75F054
:1009060008A4242AF8E6604C784AE2FF75F008A4A9
:100916002429F8E6D39400403BEF75F008A424237D
:10092600F8E6FE08E6AA06F91203EB784AE2FF7536
:10093600F008A42429F816EF75F008A42427F8E691
:10094600FE08E64E700E784AE275F008A42423F8F5
:10095600E4F608F6784AE204F28099120022020EC2
:01096600F799
:07080000784AEEF208EFF266
:10080700E4FFEF75F008A42423F8E6F58308E6452E
:10081700836009EFC3940A50030F80E6EFB40A0818
:1008270078007401F27F0A22784AE2F58308E2F53C
:1008370082EF75F008A42423F8A68308A682EF7533
:10084700F008A42425F8A60408A605AC02AD03EF1A
:1008570075F008A42427F8A60408A605A216E43311
:10086700FEEF75F008A4242AF8A606EF75F008A491
:050877002429F8E4F65D
:01087C002259
:100AC200EF75F008A42423F8E6FC08E64C700978D8
:100AD200007402F2D2168002C216EF75F008A42446
:100AE20023F8E4F608F6EF75F008A42425F8E4F6F6
:100AF20008F6EF75F008A42427F8E4F608F6EF7577
:0A0B0200F008A42429F8E4F6A21676
:010B0C0022C6
:0100220022BB
:040EF700438701220A
:070A7200784AEEF208EFF2F2
:100A7900E408F2784CE2FFC3940A500A120AC278D9
:100A89004CE204F280ED784AE2FE08E2FF7C007D48
:100A99000B1203F1E47B0CFAF9F812034BC3E49F40
:100AA900FFE49EAD07FC7804F27806EFF25389F073
:080AB900438901120E33D2A99A
:010AC1002212
:030EFF00D2AF224D
:0F0E3300C28C7806E2F58A7804E2F58CD28C2224
:03000B00020723C6
:10072300C0E0C0F0C0D075D000C000C004C005C098
:0107330007BE
:10073400120E33E4FFEF75F008A42423F8E6FC0856
:10074400E64C6046EF75F008A42425F8E6FC08E6BC
:100754004C7028EF75F008A42429F806EF75F0080A
:10076400A42427F8E6FC08E6FD4C601EEF75F008AB
:10077400A42425F8A60408A605800FEF75F008A4A4
:0F0784002425F808E616187001160FEFB40AA620
:0F079300D007D005D004D000D0D0D0F0D0E032C5
:100C3900D2A2D2A3E4780FF218F27808F208F243AC
:100C4900B30453B4FBD285780B74C8F20874E0F28C
:0B0C59000874C1F2D208D296C2A42297
:1004FC00120C0B301068200965300562D2113008DF
:10050C000512087D8058D2A2C2A37809E22401F218
:10051C0018E23400F2E2FE08E2FFD394D0EE940726
:10052C00403CEF9488EE94135003309231E47808F9
:10053C00F208F2D209C211120EC3D2A2D2A3200623
:10054C00057F0F1207FAD214E4782BF2C213780B42
:10055C0074C8F20874E0F20874C1F2D208223010A8
:10056C0003301365300962D211D285D296C2A4C26F
:10057C00A2D2A37809E22401F218E23400F2E2FEDE
:10058C0008E2FFD394D0EE9407403EEF9488EE94AB
:10059C00135003309233E47808F208F2C209C21106
:1005AC00D2A2D2A3120EC3D201781EE2FF08E278C7
:1005BC001CCFF208EFF22006057F101207FAC206D4
:0A05CC00E47849F2782BF2C2132202
:10087D0020A366780EE2FF240BF8E2FE30E71E7827
:10088D000AE204F2E2C3940A4034E4F2780FE2047F
:10089D00F2D2A3740B2FF8EE25E0F28021780AE254
:1008AD0004F2E2C394044016E4F2780FE204F2D2AB
:1008BD00A318E2240BF8C000E225E0D000F2780F77
:1008CD00E2C394084022E4F218E204F2E2D3940267
:1008DD004016E4F2D2A3C20822780AE204F2E2C37F
:0908ED0094044004E4F2C2A322C9
:100D240078107455F208F20874FFF2087455F2084A
:100D34007450F2E408F27BFE7A0079107D06020C0E
:010D4400644A
:0D0E7C00C294C2A0C2A1E47818F2D20A22EA
:070A1F00784AEFF208EDF246
:100A2600D294C2A07F037EEE120D9DD2A07F037EDC
:100A3600EE120D9DE4784CF2784AE2FF784CE2C360
:100A46009F5019D2A17FA47EFF120D9DC2A17FA443
:100A56007EFF120D9D784CE204F280DC784BE27842
:0B0A660019F27817E264186002E4F255
:010A71002262
:0507FA007817EFF22268
:0107FF0022D7
:1001C5003094177818E204F208E2FF18E2D39F5042
:1001D5000241F5E4F2C294C200227817E214B41E7B
:1001E50000400241F59001F425E05002058373417A
:1001F500304136413C4146414C41524158415E41B6
:1002050064416A4170417B4186418C419A41AA41D2
:10021500B441BA41F541C441CA41D041D641F54145
:10022500DC41E241F541F541E841EE7D017F0141C7
:10023500F27D037F0241F27D097F03120A1FC20D81
:10024500227D047F0480727D057F05806C7D057F9E
:100255000680667D057F0780607D057F08805A7D65
:10026500057F0980547D057F0A41F27D027F0B12CF
:100275000A1F7F0C801C7D027F0C120A1F7F0A80DB
:10028500117D037F0D8066D20D7D037F0E120A1F3F
:100295007F030207FA7D037F0F120A1F200A03124C
:1002A500005EC20A227D037F10120A1F02005E7DD6
:1002B500077F1180387D037F12120A1F0207FF7D19
:1002C500017F1480287D017F1580227D017F1680A6
:1002D5001C7D017F1780167D027F1980107D057FAB
:1002E5001A800A7D017F1D80047D017F1E120A1F71
:0102F50022E6
:100C0B007817E2FF6418702530941608E204F20896
:100C1B00E2FE18E2D39E4015E4F2C294C20018F231
:0E0C2B0022EF24E870077DE87F18120A1F22CE
:100D9D00781AEEF208EFF2781A08E22401FFF21841
:080DAD00E23400F24F70F02265
:100DCD0043F64043B14053B2BFD2FAC2F9D2F8D282
:070DDD00AED2AF43E180221A
:050EF200C2FCD2FB224E
:10005E00781CE2FE08E2FFC3941FEE94025007786C
:10006E00207430F2800ED3EF9424EE940240057883
:10007E0020743CF27820E224C470022117240C6014
:10008E000221C4C3781DE294FF18E29401400221BC
:10009E0023781CE2FE08E2FFC394FFEE9401500B9E
:1000AE00C3EF94F7EE94014002215B781CE2FE0848
:1000BE00E2FFC394F7EE9401500BC3EF94EFEE946E
:1000CE000140022177781CE2FE08E2FFC394EFEEB6
:1000DE009401500BC3EF94E6EE9401400221937805
:1000EE001CE2FE08E2FFC394E6EE9401500BC3EF50
:1000FE0094DFEE9401400221AFC3781DE294DF1825
:10010E00E29401400221C421BFC3781DE2947E18FF
:10011E00E2940240047F1221C1781CE2FE08E2FF45
:10012E00C3947EEE9402500DC3EF946EEE94024093
:10013E00047F09807E781CE2FE08E2FFC3946EEE17
:10014E009402500DC3EF945BEE940240047F08803E
:10015E0062781CE2FE08E2FFC3945BEE9402500D3F
:10016E00C3EF9455EE940240047F078046781CE25C
:10017E00FE08E2FFC39455EE9402500DC3EF944C6B
:10018E00EE940240047F06802A781CE2FE08E2FF0D
:10019E00C3944CEE9402500DC3EF9444EE9402407F
:1001AE00047F05800EC3781DE2944418E294025039
:0701BE00057F041207FA227D
:03005B0002096730
:10096700C0E0C0D075D000C000C001C006C007C23B
:10097700FCC2FBAFF87821E4F208EFF218E2FE08B8
:10098700E27806CEC313CE13D8F97922F3EE19F322
:10099700AFE2781EE4F208EFF218E2FE08E278020E
:1009A700C333CE33CED8F9FF7822E22F791FF3185D
:1009B700E23E19F3D007D006D001D000D0D0D0E066
:0109C70032FD
:100026002000092011063003033007227829E2B4A4
:10003600022218E22401F218E23400F2D308E29414
:10004600DC18E29405400DC200E4F208F222120523
:05005600D6120D02228C
:100D020020810A200207D202D200D20C22308111A5
:100D120030020EC202120EAEE47818F27F181207E9
:020D2200FA22B3
:100D840043B18353B27CE47824F27829F2C200C2DE
:090D940003C2017823F2C202221D
:0C0E9600E47824F27829F2C200C20322A2
:030F0200D20322F5
:100DE4003001127823E204F2E2D3940A4007C201EC
:060DF400E4F2120F0222DE
:1005D6007829E224FE602E14607024036002C1961E
:1005E60030870630800320A6177824E204F2E2C39F
:1005F60094015002C196E4F278297402F2D20022E4
:10060600E47824F22230870630800320A62078245E
:10061600E204F2E408F208F27824E2C3940240709D
:10062600E4F278297403F2D2007F020207FAE47832
:1006360024F27826E22401F218E23400F2D308E22A
:10064600947018E294174048803F30870630800344
:1006560020A61C7824E204F2E408F208F27824E2E8
:10066600C39402402BE4F27829F2D200D20C22E4A1
:100676007824F27826E22401F218E23400F2D30854
:10068600E2947018E294174007E4F208F27829F22F
:010696002241
:070EDD00C20DE4782AF222A5
:100D6600300C1A209417200D147F0E1207FA782AD9
:0E0D7600E204F2E2C394044004E4F2C20C2250
:0B0EAE00E4782AF2C20CC294C20D22AC
:0F0E4200120EF2120DB5120DE4120E0D020CDDA0
:100CDD0030A51D30871A30801730A6142082117868
:100CED002BE204F2E2D3943C400A740BF2D21322AD
:050CFD00E4782BF22257
:0A0EB900120EC3E4782BF2C21322DC
:0A0EC300E4782CF2C2057849F2220F
:100DB500300514201111782CE204F2E2D394054099
:080DC50006120EC3120F0222F8
:0C0EA2001207A2120DFA1209C8020CB7C8
:100CB700301422782EE22401F218E23400F2D3082D
:100CC700E294D018E29407400CE4F208F2C285C21D
:060CD70096D2A4C2142213
:0F0E5100120E89120E6EC214E4782DF208F222EE
:0D0E890043B10253B2FDE47832F218F222B8
:1007A20030A5283081257830E22401F218E23400A5
:1007B200F2C308E2947018E29417402A7417F20800
:1007C2007471F2E47832F2C215801B30A5182081D0
:1007D20015C37830E2942C18E294014009E4F2083F
:1007E200F27832E204F27832E2D394054009E4F27C
:0807F200D2157F191207FA224B
:100DFA0030150F30040C120B0DC204C2157F1912E4
:030E0A0007FA22C2
:100E0D0030150F7831E204F2E2D394054004E4F298
:030E1D00C21522D9
:100B0D007F007E30120D457845E2FD7F007E30126C
:100B1D000C8F7844E2FD7F017E30120C8F7843E21A
:100B2D00FD7F027E30120C8F7842E2FD7F037E3016
:100B3D00120C8F7841E2FD7F047E30120C8F7840CD
:090B4D00E2FD7F057E30020C8FF1
:100E200075AF30C2AF75C7AA75C755439F01D2AF22
:030E3000020E604F
:10000E0075AF30120E60C2AF75C7AA75C755539F34
:04001E00FED2AF223D
:0E0E6000C2AF75C7AA75C75543A401D2AF2211
:100D45007833EEF208EFF2120E2075AF227833E217
:100D5500FC08E2FDECF5A7AF058FA6120E600200B8
:010D65000E7F
:100C8F007835EEF208EFF208EDF2120E2075AF2173
:100C9F007835E2FC08E2FDECF5A7AF058FA608E278
:080CAF00F5AE120E6002000E0A
:0E0E6E00C20EC20FE47839F208F27838F22290
:1009C80030870930800630A6033082167838E20472
:1009D800F2E2C39402400FD20ED20FE408F208F2FA
:1009E8008004E47838F2200E03300F2A783AE224A3
:1009F80001F218E23400F2E2FE08E2FFD39488EE36
:100A080094134012C20ED3EF9410EE94274007E4DB
:070A180018F208F2C20F22E0
:100B5600120E7C7FF47E01120A72120C397E047F1B
:100B6600FCD2167B017A007DE87C031208007E0029
:100B76007F03D2167BE07A2E7D647C001208007E0D
:100B8600007F03D2167BE07A2E7DD47C17120800F4
:080B9600120EFF1208F680FBAD
:070EE400D2A5E4783CF222E4
:100BD50020113220942F30A516783CE204F2E2D39E
:100BE500940540067405F2D21022E4783BF222E423
:100BF500783CF2200E0F18E204F2E2D3940F400580
:060C0500740FF2C2102280
:0800030030A504D206D205224B
:080ECD0030A504D206D2132265
:070EEB00D206C205C213226A
:100B9E005387BF53A2BF75985A53890F438920AB11
:100BAE0007AA06E4F9F87F807E70FDFC12034B1253
:100BBE0003DD8F8B8F8DD28EC299D2ACE47848F242
:070BCE0008F2C206C2072273
:080ED5008F993099FDC29922AA
:100C6400783DEBF208EAF208E9F2AF051DEF601AED
:100C7400783DE2FB0808E2F92401F218E2FA3400B4
:0B0C8400F21202F6FF120ED580E022F3
:0300230002041EB6
:10041E00C0E0C0F0C083C082C0D075D000C000C0A4
:10042E0001C002C003C004C005C006C00720980268
:10043E0081E1C29878477405F27847E2FF243FF8CD
:10044E00E2FE74402FF8EEF27847E214F2E270E921
:10045E007840E599F23015117848E204F2E2C3943F
:10046E00064070E4F2D204806A903000E493FF7884
:10047E0045E26F705EA393FF18E26F7056A393FF71
:10048E0018E26F704EA393FF18E26F7046A393FFAE
:10049E0018E26F703EA393FF18E26F7036120EAE25
:1004AE00120E967818E4F27F181207FAD205782CFD
:1004BE00E4F27849E204F2E2FFD394014002D2065C
:1004CE00EFD39405400DB2077849E4F27F19120775
:1004DE00FAC206D007D006D005D004D003D002D081
:0E04EE0001D000D0D0D082D083D0F0D0E03248
:1006A300020B56E493A3F8E493A34003F68001F20C
:1006B30008DFF48029E493A3F85407240CC8C33358
:1006C300C4540F4420C8834004F456800146F6DF27
:1006D300E4800B0102040810204080900EFBE47EAE
:1006E300019360BCA3FF543F30E509541FFEE4931C
:1006F300A360010ECF54C025E060A840B8E493A3E3
:10070300FAE493A3F8E493A3C8C582C8CAC583CA0D
:10071300F0A3C8C582C8CAC583CADFE9DEE780BEC5
:010EFE0000F3
:1002F600BB010689828A83E0225002E722BBFE0206
:09030600E32289828A83E4932238
:10030F0075F008758200EF2FFFEE33FECD33CDCCA5
:10031F0033CCC58233C5829BED9AEC99E582984028
:10032F000CF582EE9BFEED9AFDEC99FC0FD5F0D605
:10033F00E4CEFBE4CDFAE4CCF9A88222B800C1B92F
:10034F000059BA002DEC8BF084CFCECDFCE5F0CB6D
:10035F00F97818EF2FFFEE33FEED33FDEC33FCEBA6
:10036F0033FB10D703994004EB99FB0FD8E5E4F961
:10037F00FA227818EF2FFFEE33FEED33FDEC33FC4E
:10038F00C933C910D7059BE99A4007EC9BFCE99A42
:10039F00F90FD8E0E4C9FAE4CCFB2275F010EF2F87
:1003AF00FFEE33FEED33FDCC33CCC833C810D70787
:1003BF009BEC9AE899400AED9BFDEC9AFCE899F8C2
:0E03CF000FD5F0DAE4CDFBE4CCFAE4C8F92255
:0E03DD00C3E49FFFE49EFEE49DFDE49CFC2231
:0603EB008A838982E4739D
:1003F100EC8EF0A4CCC5F0CCCDF8EFA4CEC5F02D99
:10040100FDE43CFCE8A42EC8C5F03DFDE43CFCEF56
:0D041100A4FFE5F028FEE43DFDE43CFC22E4
:00000001FF
