:100A5D00E4FAEF6405703343F620C2F8C2F9D2FA16
:100A6D0043E180C2FCD2FBADF8EDC413135403FD7A
:100A7D00AFE2AB07EB7E007802C333CE33CED8F9AD
:100A8D007C002DFBEC3EAF03FE22EF640670344379
:100A9D00F640D2F8C2F9D2FA43E180C2FCD2FBADE6
:100AAD00F8EDC413135403FDAFE27A00AB07EB7EF0
:100ABD00007802C333CE33CED8F97C002DFBEC3E4B
:030ACD00FEAF0376
:010AD0002203
:03068400810000F2
:0D17BE007F06120A5D7858EEF208EFF22265
:10082A007879EEF208EFF2C3941BEE9403400CD2EF
:10083A00947F121211B47F3C0208C97879E2FE084B
:10084A00E2FFC3941BEE94035014C3EF940CEE948E
:10085A0003400BD2947F081211B47F6480617879C7
:10086A00E2FE08E2C3940CEE94035011C3EE940323
:10087A00400BD2947F071211B47F6480427879E2E8
:10088A00FE08E2FFC3EE94035014C3EF94F5EE940E
:10089A0002400BD2947F061211B47F6480217879CA
:1008AA00E2FE08E2FFC394F5EE94025018C3EF94F7
:1008BA00E1EE9402400FD2947F051211B47F6412C4
:1008CA001572C29422C3787AE294E118E294025033
:0508DA00031216772255
:09068700871700000000000000CC
:0917D600C290D2A7C293C2A62260
:100F1300788674AAF2E418F2E47884F27886E2C25E
:100F2300907D147C007F2E121137D2907886E225B3
:100F3300E0F27D187C007F281211377884E204F2F6
:100F4300E2C3940840D6788674AAF218E204F2E267
:070F5300C3940240C3D290D9
:010F5A002274
:100F5B00780374AAF2E418F2E47801F27803E2C29F
:100F6B00907D147C007F2E121137D2907803E225EE
:100F7B00E0F27D187C007F281211377801E204F231
:100F8B00E2C3940640D6780374AAF218E204F2E2A4
:070F9B00C3940240C3D29091
:010FA200222C
:040D5E007804EFF234
:100D6200E408F2E47806F27805E22417F8E230E7C4
:100D72000CC2907804E2FD7C007F24800AC2907845
:100D820004E2FD7C007F17121137D2907805E2242D
:100D920017F8C000E225E0D000F27804E2FD7C0002
:100DA2007F141211377806E204F2E2C3940840B7C6
:0B0DB2007805E204F2E2C3940340A8BD
:010DBD002213
:10121E007807EFF208ECF208EDF2D2937F14121574
:10122E0072C2A7781774C8F20874E0F27807E278F1
:10123E0019F2120F13780808E2FF120D5ED2A7D230
:02124E009322E9
:1011EA00780AEFF208ECF208EDF2D2937F141215A6
:1011FA0072C2A7781774C8F20874E0F2780AE27823
:10120A0019F2120F13780B08E2FF120D5EC2A7C281
:04121A0093C29022C9
:040E1B007882EFF2F8
:100E1F00E408F21217FD903000E4937817F2903047
:100E2F0001E49308F2903002E49308F2903003E467
:100E3F009308F2903004E49308F27882E2781CF27F
:100E4F00120F13E47883F27BFE7A0079177D061276
:100E5F0012E012148E7883E204F2E2C3941E40E78C
:030E6F000217EF78
:040FA300780DEFF2E4
:100FA700E408F21217FD903000E4937817F29030BE
:100FB70001E49308F2903002E49308F2903003E4DE
:100FC7009308F2903004E49308F2780DE2781CF26B
:100FD700120F5B7BFE7A0079177D061212E002176B
:010FE700EF1A
:0517FD00D293C2A722F7
:0717EF00D2A7C293C29022B1
:10102D001217FD781774C8F20874C1F2903000E4FD
:10103D009308F2903001E49308F2903002E49308A3
:10104D00F2903003E49308F2903004E49308F21226
:10105D000F137BFE7A0079177D071212E01214C26E
:03106D000217EF78
:100C280020910F7877E204F2C394784002E4F2C28C
:100C38000022200041D2007877E2FFD394234010AD
:100C4800EFD39450500A7848E225E0F254FE801021
:100C58007877E2D3945040147848E225E0F24401D2
:100C6800F2785EE204F2E47876F280057876E204BF
:100C7800F2E47877F2227876E204F2C3943C4009F1
:0A0C8800E4785EF2D2007853F22205
:100C920030B00F7877E204F2C394784002E4F2C2F3
:100CA2000022200041D2007877E2FFD39423401043
:100CB200EFD39450500A7848E225E0F254FE8010B7
:100CC2007877E2D3945040147848E225E0F2440168
:100CD200F2785EE204F2E47876F280057876E20455
:100CE200F2E47877F2227876E204F2C3943C400987
:0A0CF200E4785EF2D2007853F2229B
:1010F600785EE264087039F27848E2FF7853E2FEDF
:10110600244CF8EFF2EE700C784CE2B4C806785333
:101116007401F222EEB4010C784DE2B4E006785385
:101126007402F222EEB40204D2058000E47853F28F
:011136002296
:070AD100780FECF208EDF2D2
:100AD800781774C8F20874E0F208EFF2E47811F2BB
:100AE800E47812F27811E22417F8E230E70DC2A395
:100AF800780FE2FC08E2FD7F24800BC2A3780FE2A6
:100B0800FC08E2FD7F17121137D2A37811E22417EF
:100B1800F8C000E225E0D000F2780FE2FC08E2FD20
:100B28007F0F1211377812E204F2E2C3940840B43E
:0B0B38007811E204F2E2C3940340A530
:010B4300228F
:070B44007813ECF208EDF25A
:100B4B00781774C8F20874E0F208EFF2E47815F243
:100B5B00E47816F27815E22417F8E230E70DC2813B
:100B6B007813E2FC08E2FD7F24800BC2817813E24C
:100B7B00FC08E2FD7F17121137D2817815E224179A
:100B8B00F8C000E225E0D000F27813E2FC08E2FDA9
:100B9B007F0F1211377816E204F2E2C3940840B4C7
:0B0BAB007815E204F2E2C3940340A5B9
:010BB600221C
:0406900082200000C4
:10147400782074FFF2087493F2782008E22401FFC4
:0A148400F218E23400F24F70F0227B
:10148E00782074FDF20874E3F2782008E22401FF5C
:0A149E00F218E23400F24F70F02261
:1014A800782074FBF20874C7F2782008E22401FF60
:0A14B800F218E23400F24F70F02247
:1014C200782074EAF20874E7F2782008E22401FF37
:0A14D200F218E23400F24F70F0222D
:1014DC007820742DF208740FF2782008E22401FFB2
:0A14EC00F218E23400F24F70F02213
:10157200AE071FEE60107C137D88ED1DAA0470017A
:061582001C4A60EC80F43D
:011588002240
:071137007887ECF208EDF2ED
:10113E00E408F208F2EFFDC3788AE29D18E294000B
:10114E005025E4FEEEFDD37888E29D7480F5F0180C
:10115E00E2648095F040030E80EA788AE22401F280
:07116E0018E23400F280CE0C
:011175002257
:1013E400E4FDFCC3ED9FEC9E5015E4FBFA0BBB003F
:0F13F400010AEB64644A70F50DBD00010C80E442
:0114030022C6
:10151000E4FDFCC3ED9FEC9E500EE4FB0BEBB4042A
:08152000FB0DBD00010C80EB86
:0115280022A0
:07117600781EEEF208EFF213
:10117D00E4F9E4FAFBD3781FE29B18E29A40070BDF
:10118D00BB00010A80EF09E9B432E7E4F9209216B9
:10119D00E4FAFBC3EB9DEA9C50070BBB00010A80F0
:0611AD00F209E9B432E78B
:0111B3002219
:04069400C122C1219D
:101358001217B0200A091216C2D21CE47875F2D20C
:1013680022E4786CF27F14121572E4785DF2300A88
:0413780002C20A2281
:10152900200A101216B37843E2FE08E2FF12082AD5
:0915390012180A78657401F2220F
:0B17CB00C221C21EC222D284D283229F
:100DBE0030172B786DE2C394045023D2042008041C
:100DCE007FC380027FC6120E1B1216A4786DE2043A
:100DDE00F2C394044008E4F2C217C204C2073019E9
:100DEE002B786EE2C394045023D2042008047FC3F0
:100DFE0080027FC6120E1B12161E786EE204F2C31C
:0D0E0E0094044008E4F2C219C204C2072295
:1013C200301A1E786BE204F2C394034014E4F2C2B2
:1013D2001A785DF27865E27006200603121644C29E
:0213E2000622E1
:1015420030221420A411786CE204F2C39403400701
:08155200E4F2C2221216442249
:10130B003013247864E204F2D39405401AE4784A4B
:10131B00F208F27855F208F2C20DC20EC20FC210DB
:08132B00C212C2137864F22221
:101589003009127849E2C39405500A7FC5120E1B2F
:061599007849E204F22291
:10159F003020127878E2C39405500A7FC4120E1BD4
:0615AF007878E204F2224C
:1015B500301D127842E2C39405500A7FC2120E1BF9
:0615C5007842E204F2226C
:101250007822EEF208EFF208ECF208EDF2EBFD7CFA
:10126000007FC1120AD1D2A2C2A37822E2FE08E214
:10127000FF08E2FC08E2FD121176D2A2D2A3C285D9
:01128000224B
:101281007826EEF208EFF208ECF208EDF2EBFD7CC5
:10129100007FC1120B44D2A2C2A37826E2FE08E26B
:1012A100FF08E2FC08E2FD121176C2A2C2A3C285C8
:0112B100221A
:0E179400D285C2A2D2A3121176D2A2D2A32273
:0E17A200D285C2A2D2A3121176C2A2C2A32285
:100FE800C21EC221C209C220E47841F27861F278B7
:100FF80054F2785AF208F2785FF208F2786FF20841
:10100800F2785CF2786AF2C204C217786DF2C219FB
:10101800786EF2C2017857F2C208C222786CF2C226
:051028001D7842F222D8
:10164400D21ED221E47841F27861F2C222786CF29F
:011654002273
:08000300C2A41214DCD2A422F5
:10155A0075DCC0782AE4F208741DF218E2FC08E28D
:08156A00FDECF5D1EDF5D922ED
:100CFC00EF14601F14603114604324037053782A7E
:100D0C00E4F208740DF218E2FC08E2FDECF5D2ED09
:100D1C00F5DA22782A7401F208E4F218E2FC08E20F
:100D2C00FDECF5D3EDF5DB22782AE4F2087480F2C1
:100D3C0018E2FC08E2FDECF5D5EDF5DD22782AE4AD
:100D4C00F2087440F218E2FC08E2FDECF5D6EDF581
:020D5C00DE2295
:0817DF00E4FF120CFC02155A94
:0709E800782CECF208EDF29F
:1009EF007E007C2B7D33120564E47B0CFAF9F81240
:1009FF0004CCC3E49FFFE49E782EF27830EFF278B8
:100A0F002CE2FE08E2FFEE3395E0FDFCE47B0BFAEF
:100A1F00F9F8120441E47B0CFAF9F81204CCC3E4A0
:100A2F009FFFE49EAD07FF782FF2AE057831EEF20F
:100A3F00758911782EE2F58C7830E2F58A8F8D8EDC
:0D0A4F008BD2A9C28CD2ABD28ED2BBD2AF5B
:010A5C002277
:101333007E007C2B7D33120564E47B0CFAF9F812F2
:1013430004CCC3E49FFFE49E782EF27830EFF2756D
:041353008921C28C9E
:011357002273
:0418020043870122F5
:10137C0053A2BF75985A758920758BFD758DFDD25A
:10138C008E7F01121333C299C298D2ACD2A9D2BCAF
:03139C00D2AF22AB
:10139F0053A2BF75985A758920758BE8758DE8D261
:1013AF008E7F01121333C299C298D2ACD2A9D2BC8C
:0313BF00D2AF2288
:0817E7008F993099FDC299228F
:1012E0007884EBF208EAF208E9F2AF051DEF601A24
:1012F0007884E2FB0808E2F92401F218E2FA3400EB
:0B130000F2120428FF1217E780E02221
:03069800813201AB
:0411B4007882EFF25C
:1011B800C2A01214C2D2A01214C2E47883F27882B8
:1011C800E2FF08E2C39F5019D2A17F147E001215D6
:1011D80010C2A17F147E001215107883E204F280F9
:0111E800DD29
:0111E90022E3
:10143E00C294C2A1C2A07F5E7E01121510D2A07FFF
:0B144E005E7E01121510D294C29422A1
:01180A0022BB
:0F167700D2947F041211B47F50121572C29422C4
:0F168600D2947F181211B47F1E121572C29422D3
:10165500D2947F191211B47F1E121572C294C2164C
:011665002262
:10160B00D2947F021211B47F5A121572C2947F1EAC
:03161B0002157243
:0F169500D2947F111211B47F8C121572C294225D
:0F16A400D2947F0E1211B47F50121572C294228D
:10161E00D2947F031211B47FB4121572C2947F1448
:03162E0002157230
:0F16B300D2947F0F1211B47F3C121572C2942291
:0F16C200D2947F101211B47F3C121572C2942281
:0F16D100D2947F0D1211B47F64121572C294224D
:0F16E000D2947F141211B47F78121572C2942223
:0F16EF00D2947F131211B47F96121572C29422F7
:0F16FE00D2947F091211B47F50121572C2942238
:0F170D00D2947F071211B47F32121572C2942248
:0F171C00D2947F051211B47F96121572C29422D7
:0F172B00D2947F031211B47F8C121572C29422D4
:0F173A00D2947F021211B47F78121572C29422DA
:0F174900D2947F0B1211B47F50121572C29422EA
:0F175800D2947F0B1211B47F32121572C29422F9
:0F176700D2947F0F1211B47F50121572C29422C8
:0F177600D2947F0C1211B47F50121572C29422BC
:0F178500D2947F0D1211B47F50121572C29422AC
:1015CB00300C12C20C7865E2700B20110820140548
:0615DB00121686D2142254
:1016310075AF30C2AF75C7AA75C755439F01D2AF09
:031641000215028D
:1015F70075AF30121502C2AF75C7AA75C755539F8D
:04160700FED2AF223E
:0C14F600E2FC08E2FDECF5A7AF058FA6B4
:0E150200C2AF75C7AA75C75543A401D2AF2268
:10000E007833EEF208EFF212163175AF2278331212
:05001E0014F60215F7C5
:0612B200784EE2FD7E30E3
:1012B8007835EEF208EFF208EDF212163175AF212B
:1012C8007835E2FC08E2FDECF5A7AF058FA608E249
:0812D800F5AE1215020215F734
:071404007838EEF208EFF268
:10140B00121631E4F5AF78381214F608E5AEF21285
:06141B0015F7783AE2FF2C
:0114210022A8
:101070007F007E3012000E784CE2FD7F007E301241
:1010800012B8784DE2FD7F017E301212B87F021255
:1010900012B2784FE2FD7F037E301212B87850E230
:1010A000FD7F047E301212B87851E2FD7F057E305C
:0310B0000212B871
:1010B3007F007E3012000E7F001212B2784FE2FDE5
:1010C3007F017E301212B87850E2FD7F027E30122B
:1010D30012B87851E2FD7F037E301212B87852E2E3
:1010E300FD7F047E301212B87853E2FD7F057E3017
:0310F3000212B82E
:0717F600D2A2D2A30217B03A
:10166600120E72D2A2C2A31215E1D2A2D2A3C285D1
:011676002251
:0E17B000D285C2A2D2A3121422D2A2D2A322A8
:100E7200781774C8F20874E0F20874C1F2E4787961
:100E8200F2E4787AF27879E22417F8E230E707C2DE
:100E9200A31214A88005C2A312148ED2A37879E2F9
:100EA2002417F8C000E2FF25E0D000F212148E7879
:100EB2007AE204F2E2C3940840CB7879E204F2E2E7
:050EC200C3940340BCD5
:010EC7002208
:1015E1001214DC1214DC20920C1214DC1214DC1222
:0615F10014DC1214DC22E0
:101422001214DC1214DC2092121214DC1214DC12DC
:0C14320014DC1214DC1214DC1214DC2296
:03069B00813D009E
:100BB700E47882F27882E2FFC3940A505EEF75F020
:100BC70008A4242CF8E6604C7882E2FF75F008A4AC
:100BD700242BF8E6D39400403BEF75F008A42425B6
:100BE700F8E6FE08E6AA06F912055E7882E2FF75C6
:100BF700F008A4242BF816EF75F008A42429F8E6CA
:100C0700FE08E64E700E7882E275F008A42425F8F7
:100C1700E4F608F67882E204F2809912180B0218BB
:010C270006C6
:07096B00783BEEF208EFF209
:10097200E4FFEF75F008A42425F8E6F58308E645C0
:10098200836009EFC3940A50030F80E6EFB40A08AC
:10099200783D7401F27F0A22783BE2F58308E2F5A2
:1009A20082EF75F008A42425F8A68308A682EF75C5
:1009B200F008A42427F8A60408A605AC02AD03EFAC
:1009C20075F008A42429F8A60408A605A223E43396
:1009D200FEEF75F008A4242CF8A606EF75F008A423
:0509E200242BF8E4F6EF
:0109E70022ED
:100EC800EF75F008A42425F8E6FC08E64C700978CC
:100ED8003D7402F2D2248002C224EF75F008A424E3
:100EE80025F8E4F608F6EF75F008A42427F8E4F6E8
:100EF80008F6EF75F008A42429F8E4F608F6EF756B
:0A0F0800F008A4242BF8E4F6A2245C
:010F120022BC
:01180B0022BA
:10076500E47879F27879E2FFC3940A400302082914
:10077500EF75F008A42425F8E6FE08E64E7003029E
:1007850008217879E2FF75F008A42427F8E6FC082B
:10079500E64C7077EF75F008A4242CF8E6600D7828
:1007A50079E275F008A4242BF806803D7879E27586
:1007B500F008A42425F8E6FE08E6AA06F912055E67
:1007C5007879E2FF75F008A4242BF816EF75F00888
:1007D500A42429F8E6FE08E64E700E7879E275F055
:1007E50008A42425F8E4F608F67879E2FF75F00800
:1007F500A42429F8E6FC08E6FD4C6020EF75F00816
:10080500A42427F8A60408A60580117879E275F0D6
:1008150008A42427F808E616187001167879E2046A
:04082500F20207696B
:0108290022AC
:0418060043870122F1
:10069E00C104C11EC117C119816D00816E00C1094F
:1006AE00C120815400825F0000816A00815C00825B
:1006BE006F0000C101814100825A000081610081FA
:1006CE00780081490082680000874C00000000001D
:1006DE000000C105815300814800815E00C1808108
:1006EE00760081770081630081620082730000C111
:1006FE00038165008258000082430000815700C1CB
:10070E001D814200C10282460000C11882660000AF
:10071E00C108C11A816B00816C00C107C11B8271B7
:10072E000000C10C824A000082550000C10DC10EAE
:10073E00C10FC110C112C113816400C115815D00CA
:10074E00C10AC116817500C11CC10BC106C11FC1F2
:06075E0011814500C114E9
:1014590012143E12139F1217CB1217D61217F6D277
:0B14690085D28C120BB7120DBE80F86C
:03000B00020026CA
:10002600C0E0C0F0C083C082C0D075D000C000C0A0
:1000360001C002C003C004C005C006C007782EE296
:10004600F58C7830E2F58A120765786808E22401B3
:10005600FFF218E23400FEF2C3EF94D0EE940740AC
:100066004FE4F208F21217BE12154212130B7875FE
:10007600E204F2D39403401B740AF2301C1578583C
:10008600E2FE08E2FF7843EEF2FE08EFF2FF120806
:100096002AC21C7845E204F2D39403400A7405F29E
:1000A600C211C21A12164412158912159F1215B5DD
:1000B6001215CB301F05C21F12165520A4030201CC
:1000C6004930813E7855E4F208F2784A08E2240184
:1000D600FFF218E23400FEF2D3EF94A0EE940F4044
:1000E60013740FF20874A2F2C20DC20EC20FC21030
:1000F600C212804FD20D300E02D20F301045D212EE
:100106008041784AE4F208F2300D02D20E300F0236
:10011600D210301204D213D215785508E22401FF0A
:10012600F218E23400FEF2D3EF94A0EE940F4013DF
:10013600740FF20874A2F2C20DC20EC20FC210C230
:1001460012C213301516C215D216C20DC20EC20F38
:10015600C210C212C21312165512102D30A42178E5
:1001660065E2701C301A19200616120FE8C21478C0
:100176006BE4F2C21A785DF2D211121666121529D4
:1001860030A4032011207865E2B4011A2018172044
:100196001B1412147430A40320110B7865E4F212B8
:1001A6001358C20CC214308003208708D218786610
:1001B600E4F208F230181D786608E22401FFF2180E
:1001C600E23400FEF2C3EF94D0EE94074006C21864
:1001D600E4F208F2308208D21B7871E4F208F230B9
:1001E6001B1D787108E22401FFF218E23400FEF2CA
:1001F600C3EF94D0EE94074006C21BE4F208F23037
:100206008003208708D2187866E4F208F2202103DA
:1002160002033E7841E21460451470030202AC24E6
:1002260002600302030530800320872B2004282068
:10023600162530A7227861E204F2C3940150030226
:100246000305E4F2784104F21214DC1214DC1214F1
:10025600DC1214DC0203057861E4F2020305308047
:10026600032087167854E204F2C394014010E4F2A6
:1002760078417402F212160B80047854E4F2785A2C
:1002860008E22401FFF218E23400FEF2C3EF94A064
:10029600EE940F406A7841E4F27854F27861F2788D
:1002A6005AF208F28059308003208714785CE20401
:1002B600F2C39401400EE4F2D217D219D207800499
:1002C600785CE4F2785F08E22401FFF218E2340079
:1002D600FEF2C3EF94A0EE940F40247841E4F27846
:1002E60061F27854F2785AF208F2785FF208F278FE
:1002F6006F7403F2087420F2785CE4F2786AF220F4
:10030600811A7857E2C394335012E204F2943240D1
:1003160019D217D2197433F2D208800E30810B200D
:1003260007087857E4F2C217C219C37858E2940155
:100336005004D21D8002C21D301E422084137862F2
:10034600E204F2B40A16D220C20920030FD20180B9
:100356000BC2207878E4F27862F2C2012083137827
:1003660063E204F2B40A16D209C22020030FD201B6
:10037600800BC2097849E4F27863F2C20130014287
:10038600787308E22401FFF218E23400FEF2C3EFAC
:1003960094A0EE940F402BC201E4F208F2D2037847
:1003A60041F27861F27854F2785AF208F2785FF204
:1003B60008F2786F7403F2087420F2785CE4F2783D
:1003C6006AF230870320801FD37847E2948818E2C8
:1003D600941340137F03121572308703208008D2CE
:1003E600027846E4F208F2784608E22401FFF218A1
:1003F600E23400FEF2C3EF9488EE941340097413BE
:10040600F2087489F2C202D007D006D005D004D013
:1004160003D002D001D000D0D0D082D083D0F0D08B
:02042600E032C2
:0300230002059142
:10059100C0E0C0F0C083C082C0D075D000C000C030
:1005A10001C002C003C004C005C006C007209803F3
:1005B100020669C2987853E2FF244CF8E599F230BB
:1005C1001303020669EF701290300093FF784CE23A
:1005D100B5070778537401F280737853E2B40113BD
:1005E100903001E493FF784DE2B507077853740228
:1005F100F2805A7853E2FFB40213903002E493FE82
:10060100784EE2B5060778537403F28040EFB403E5
:1006110013903003E493FF784FE2B50707785374E2
:1006210004F280297853E2B40413903004E493FF78
:100631007850E2B5070778537405F280107853E2D9
:10064100B40506D205E4F280047853E4F2300518CB
:10065100C2057851E2243F700FD21A786BE4F2128E
:100661000FE8D20C7845E4F2D007D006D005D004CB
:10067100D003D002D001D000D0D0D082D083D0F02E
:03068100D0E03294
:030000000208DF14
:0C08DF00787FE4F6D8FD758174020926CC
:10042800BB010689828A83E0225002E722BBFE02D2
:09043800E32289828A83E4932205
:10044100E88FF0A4CC8BF0A42CFCE98EF0A42CFC5A
:100451008AF0EDA42CFCEA8EF0A4CDA8F08BF0A4D8
:100461002DCC3825F0FDE98FF0A42CCD35F0FCEB37
:100471008EF0A4FEA9F0EB8FF0A4CFC5F02ECD39FC
:0F048100FEE43CFCEAA42DCE35F0FDE43CFC2269
:1004900075F008758200EF2FFFEE33FECD33CDCC23
:1004A00033CCC58233C5829BED9AEC99E5829840A6
:1004B0000CF582EE9BFEED9AFDEC99FC0FD5F0D683
:1004C000E4CEFBE4CDFAE4CCF9A88222B800C1B9AD
:1004D0000059BA002DEC8BF084CFCECDFCE5F0CBEB
:1004E000F97818EF2FFFEE33FEED33FDEC33FCEB24
:1004F00033FB10D703994004EB99FB0FD8E5E4F9DF
:10050000FA227818EF2FFFEE33FEED33FDEC33FCCB
:10051000C933C910D7059BE99A4007EC9BFCE99ABF
:10052000F90FD8E0E4C9FAE4CCFB2275F010EF2F04
:10053000FFEE33FEED33FDCC33CCC833C810D70704
:100540009BEC9AE899400AED9BFDEC9AFCE899F83F
:0E0550000FD5F0DAE4CDFBE4CCFAE4C8F922D2
:06055E008A838982E47328
:10056400EC8EF0A4CCC5F0CCCDF8EFA4CEC5F02D24
:10057400FDE43CFCE8A42EC8C5F03DFDE43CFCEFE2
:0D058400A4FFE5F028FEE43DFDE43CFC2270
:1008EB00021459E493A3F8E493A34003F68001F2B6
:1008FB0008DFF48029E493A3F85407240CC8C3330E
:10090B00C4540F4420C8834004F456800146F6DFDC
:10091B00E4800B0102040810204080900684E47EE2
:10092B00019360BCA3FF543F30E509541FFEE493D1
:10093B00A360010ECF54C025E060A840B8E493A398
:10094B00FAE493A3F8E493A3C8C582C8CAC583CAC3
:10095B00F0A3C8C582C8CAC583CADFE9DEE780BE7B
:010764000094
:00000001FF
